{
  "contractName": "BridgeAssist",
  "abi": [
    {
      "inputs": [
        {
          "internalType": "contract IERC20",
          "name": "_TKN",
          "type": "address"
        }
      ],
      "stateMutability": "nonpayable",
      "type": "constructor"
    },
    {
      "anonymous": false,
      "inputs": [
        {
          "indexed": true,
          "internalType": "address",
          "name": "sender",
          "type": "address"
        },
        {
          "indexed": false,
          "internalType": "uint256",
          "name": "amount",
          "type": "uint256"
        }
      ],
      "name": "Collect",
      "type": "event"
    },
    {
      "anonymous": false,
      "inputs": [
        {
          "indexed": true,
          "internalType": "address",
          "name": "sender",
          "type": "address"
        },
        {
          "indexed": false,
          "internalType": "uint256",
          "name": "amount",
          "type": "uint256"
        }
      ],
      "name": "Dispense",
      "type": "event"
    },
    {
      "anonymous": false,
      "inputs": [
        {
          "indexed": true,
          "internalType": "address",
          "name": "previousOwner",
          "type": "address"
        },
        {
          "indexed": true,
          "internalType": "address",
          "name": "newOwner",
          "type": "address"
        }
      ],
      "name": "TransferOwnership",
      "type": "event"
    },
    {
      "inputs": [],
      "name": "TKN",
      "outputs": [
        {
          "internalType": "contract IERC20",
          "name": "",
          "type": "address"
        }
      ],
      "stateMutability": "view",
      "type": "function"
    },
    {
      "inputs": [],
      "name": "owner",
      "outputs": [
        {
          "internalType": "address",
          "name": "",
          "type": "address"
        }
      ],
      "stateMutability": "view",
      "type": "function"
    },
    {
      "inputs": [
        {
          "internalType": "address",
          "name": "_sender",
          "type": "address"
        }
      ],
      "name": "collect",
      "outputs": [
        {
          "internalType": "uint256",
          "name": "amount",
          "type": "uint256"
        }
      ],
      "stateMutability": "nonpayable",
      "type": "function"
    },
    {
      "inputs": [
        {
          "internalType": "address",
          "name": "_sender",
          "type": "address"
        },
        {
          "internalType": "uint256",
          "name": "_amount",
          "type": "uint256"
        }
      ],
      "name": "dispense",
      "outputs": [
        {
          "internalType": "bool",
          "name": "success",
          "type": "bool"
        }
      ],
      "stateMutability": "nonpayable",
      "type": "function"
    },
    {
      "inputs": [
        {
          "internalType": "address",
          "name": "_newOwner",
          "type": "address"
        }
      ],
      "name": "transferOwnership",
      "outputs": [],
      "stateMutability": "nonpayable",
      "type": "function"
    }
  ],
  "bytecode": "0x608060405234801561001057600080fd5b5060405161089638038061089683398101604081905261002f9161005d565b60018054600160a060020a03909216600160a060020a0319928316179055600080549091163317905561008b565b60006020828403121561006e578081fd5b8151600160a060020a0381168114610084578182fd5b9392505050565b6107fc8061009a6000396000f3fe608060405234801561001057600080fd5b5060043610610073577c0100000000000000000000000000000000000000000000000000000000600035046306ec16f881146100785780638da5cb5b146100a1578063ab8feb02146100b6578063bef54a5e146100be578063f2fde38b146100de575b600080fd5b61008b610086366004610518565b6100f3565b60405161009891906107bd565b60405180910390f35b6100a96102ec565b604051610098919061059a565b6100a96102fb565b6100d16100cc366004610539565b61030a565b60405161009891906105e1565b6100f16100ec366004610518565b61043e565b005b60008054600160a060020a0316331461012a5760405160e560020a62461bcd028152600401610121906105ec565b60405180910390fd5b6001546040517fdd62ed3e000000000000000000000000000000000000000000000000000000008152600160a060020a039091169063dd62ed3e9061017590859030906004016105ae565b60206040518083038186803b15801561018d57600080fd5b505afa1580156101a1573d6000803e3d6000fd5b505050506040513d601f19601f820116820180604052508101906101c59190610582565b9050600081116101ea5760405160e560020a62461bcd02815260040161012190610786565b6001546040517f79cc6790000000000000000000000000000000000000000000000000000000008152600160a060020a03909116906379cc67909061023590859085906004016105c8565b602060405180830381600087803b15801561024f57600080fd5b505af1158015610263573d6000803e3d6000fd5b505050506040513d601f19601f820116820180604052508101906102879190610562565b6102a65760405160e560020a62461bcd02815260040161012190610649565b81600160a060020a03167f4256a058fa2b123d727576d3d31e3a272db98ee5fe264e229610ce43dc849999826040516102df91906107bd565b60405180910390a2919050565b600054600160a060020a031681565b600154600160a060020a031681565b60008054600160a060020a031633146103385760405160e560020a62461bcd028152600401610121906105ec565b6001546040517f40c10f19000000000000000000000000000000000000000000000000000000008152600160a060020a03909116906340c10f199061038390869086906004016105c8565b602060405180830381600087803b15801561039d57600080fd5b505af11580156103b1573d6000803e3d6000fd5b505050506040513d601f19601f820116820180604052508101906103d59190610562565b6103f45760405160e560020a62461bcd02815260040161012190610729565b82600160a060020a03167feb9df064f68e905565a2656b40e16dd2df0c9c21d72fda0d3a97de56f826f3d88360405161042d91906107bd565b60405180910390a250600192915050565b600054600160a060020a0316331461046b5760405160e560020a62461bcd028152600401610121906105ec565b600160a060020a0381166104945760405160e560020a62461bcd028152600401610121906106cc565b60008054604051600160a060020a03808516939216917f5c486528ec3e3f0ea91181cff8116f02bfa350e03b8b6f12e00765adbb5af85c91a36000805473ffffffffffffffffffffffffffffffffffffffff1916600160a060020a0392909216919091179055565b8035600160a060020a038116811461051357600080fd5b919050565b600060208284031215610529578081fd5b610532826104fc565b9392505050565b6000806040838503121561054b578081fd5b610554836104fc565b946020939093013593505050565b600060208284031215610573578081fd5b81518015158114610532578182fd5b600060208284031215610593578081fd5b5051919050565b600160a060020a0391909116815260200190565b600160a060020a0392831681529116602082015260400190565b600160a060020a03929092168252602082015260400190565b901515815260200190565b60208082526024908201527f546869732066756e6374696f6e206973207265737472696374656420746f206f60408201527f776e657200000000000000000000000000000000000000000000000000000000606082015260800190565b60208082526055908201527f5472616e73666572206661696c7572652e204d616b652073757265207468617460408201527f20796f75722062616c616e6365206973206e6f74206c6f776572207468616e2060608201527f74686520616c6c6f77616e636520796f75207365740000000000000000000000608082015260a00190565b60208082526022908201527f496e76616c696420616464726573733a2073686f756c64206e6f74206265203060408201527f7830000000000000000000000000000000000000000000000000000000000000606082015260800190565b60208082526028908201527f44697370656e7365206661696c7572652e20436f6e7461637420636f6e74726160408201527f6374206f776e6572000000000000000000000000000000000000000000000000606082015260800190565b60208082526012908201527f4e6f20616d6f756e7420617070726f7665640000000000000000000000000000604082015260600190565b9081526020019056fea264697066735822122002de5328c42c517e9e0bd636c93c85bb6ae8c3344027c92040bbabf31b47daac64736f6c63430008000033",
  "immutableReferences": {},
  "source": "// SPDX-License-Identifier: MIT\npragma solidity ^0.8.0;\ninterface IERC20 {\n    function totalSupply() external view returns (uint256);\n    function balanceOf(address account) external view returns (uint256);\n    function transfer(address recipient, uint256 amount) external returns (bool);\n    function allowance(address owner, address spender) external view returns (uint256);\n    function approve(address spender, uint256 amount) external returns (bool);\n    function transferFrom(address sender, address recipient, uint256 amount) external returns (bool);\n\n    function mint(address to, uint256 amount) external returns (bool);\n    function burn(uint256 amount) external returns (bool);\n    function burnFrom(address from, uint256 amount) external returns (bool);\n}\ncontract BridgeAssist {\n    address public owner;\n    IERC20 public TKN;\n\n    modifier restricted {\n        require(msg.sender == owner, \"This function is restricted to owner\");\n        _;\n    }\n    \n    event Collect(address indexed sender, uint256 amount);\n    event Dispense(address indexed sender, uint256 amount);\n    event TransferOwnership(address indexed previousOwner, address indexed newOwner);\n\n    function collect(address _sender) public restricted returns (uint256 amount) {\n        amount = TKN.allowance(_sender, address(this));\n        require(amount > 0, \"No amount approved\");\n        require(\n            TKN.burnFrom(_sender, amount),\n            \"Transfer failure. Make sure that your balance is not lower than the allowance you set\"\n        );\n        emit Collect(_sender,amount);\n    }\n\n    function dispense(address _sender, uint256 _amount) public restricted returns (bool success) {\n        require(TKN.mint(_sender, _amount), \"Dispense failure. Contact contract owner\");\n        emit Dispense(_sender, _amount);\n        return true;\n    }\n\n    function transferOwnership(address _newOwner) public restricted {\n        require(_newOwner != address(0), \"Invalid address: should not be 0x0\");\n        emit TransferOwnership(owner, _newOwner);\n        owner = _newOwner;\n    }\n\n    constructor(IERC20 _TKN) {\n        TKN = _TKN;\n        owner = msg.sender;\n    }\n}",
  "sourcePath": "C:/projects/ethobridge/contracts/BridgeAssist.sol",
  "compiler": {
    "name": "solc",
    "version": "0.8.0+commit.c7dfd78e.Emscripten.clang"
  },
  "schemaVersion": "3.3.3",
  "updatedAt": "2021-01-30T16:09:50.270Z",
  "networkType": "ethereum",
  "devdoc": {
    "kind": "dev",
    "methods": {},
    "version": 1
  },
  "userdoc": {
    "kind": "user",
    "methods": {},
    "version": 1
  }
}