{
  "contractName": "BridgeAssistO",
  "abi": [
    {
      "inputs": [],
      "stateMutability": "nonpayable",
      "type": "constructor"
    },
    {
      "anonymous": false,
      "inputs": [
        {
          "indexed": true,
          "internalType": "address",
          "name": "sender",
          "type": "address"
        },
        {
          "indexed": false,
          "internalType": "uint256",
          "name": "amount",
          "type": "uint256"
        }
      ],
      "name": "Collect",
      "type": "event"
    },
    {
      "anonymous": false,
      "inputs": [
        {
          "indexed": true,
          "internalType": "address",
          "name": "sender",
          "type": "address"
        },
        {
          "indexed": false,
          "internalType": "uint256",
          "name": "amount",
          "type": "uint256"
        }
      ],
      "name": "Dispense",
      "type": "event"
    },
    {
      "anonymous": false,
      "inputs": [
        {
          "indexed": true,
          "internalType": "address",
          "name": "previousOwner",
          "type": "address"
        },
        {
          "indexed": true,
          "internalType": "address",
          "name": "newOwner",
          "type": "address"
        }
      ],
      "name": "TransferOwnership",
      "type": "event"
    },
    {
      "anonymous": false,
      "inputs": [
        {
          "indexed": true,
          "internalType": "address",
          "name": "sender",
          "type": "address"
        },
        {
          "indexed": false,
          "internalType": "uint256",
          "name": "amount",
          "type": "uint256"
        }
      ],
      "name": "WriteEntry",
      "type": "event"
    },
    {
      "inputs": [
        {
          "internalType": "address",
          "name": "",
          "type": "address"
        }
      ],
      "name": "entryOf",
      "outputs": [
        {
          "internalType": "uint256",
          "name": "",
          "type": "uint256"
        }
      ],
      "stateMutability": "view",
      "type": "function"
    },
    {
      "inputs": [],
      "name": "owner",
      "outputs": [
        {
          "internalType": "address",
          "name": "",
          "type": "address"
        }
      ],
      "stateMutability": "view",
      "type": "function"
    },
    {
      "inputs": [],
      "name": "writeEntry",
      "outputs": [],
      "stateMutability": "payable",
      "type": "function"
    },
    {
      "inputs": [
        {
          "internalType": "address",
          "name": "_sender",
          "type": "address"
        }
      ],
      "name": "collect",
      "outputs": [
        {
          "internalType": "uint256",
          "name": "amount",
          "type": "uint256"
        }
      ],
      "stateMutability": "nonpayable",
      "type": "function"
    },
    {
      "inputs": [
        {
          "internalType": "address payable",
          "name": "_sender",
          "type": "address"
        },
        {
          "internalType": "uint256",
          "name": "_amount",
          "type": "uint256"
        }
      ],
      "name": "dispense",
      "outputs": [
        {
          "internalType": "bool",
          "name": "success",
          "type": "bool"
        }
      ],
      "stateMutability": "nonpayable",
      "type": "function"
    },
    {
      "inputs": [
        {
          "internalType": "address",
          "name": "_newOwner",
          "type": "address"
        }
      ],
      "name": "transferOwnership",
      "outputs": [],
      "stateMutability": "nonpayable",
      "type": "function"
    }
  ],
  "bytecode": "0x608060405234801561001057600080fd5b5060008054600160a060020a03191633179055610716806100326000396000f3fe608060405260043610610071577c0100000000000000000000000000000000000000000000000000000000600035046306ec16f8811461007657806358bb388a146100ac5780635c51fa21146100cc5780638da5cb5b146100d6578063bef54a5e146100f8578063f2fde38b14610125575b600080fd5b34801561008257600080fd5b506100966100913660046104a4565b610145565b6040516100a391906106bf565b60405180910390f35b3480156100b857600080fd5b506100966100c73660046104a4565b61020e565b6100d4610220565b005b3480156100e257600080fd5b506100eb610328565b6040516100a391906104f5565b34801561010457600080fd5b506101186101133660046104c7565b610337565b6040516100a39190610509565b34801561013157600080fd5b506100d46101403660046104a4565b6103f3565b60008054600160a060020a0316331461017c5760405160e560020a62461bcd02815260040161017390610514565b60405180910390fd5b50600160a060020a038116600090815260016020526040902054806101b65760405160e560020a62461bcd02815260040161017390610571565b600160a060020a03821660008181526001602052604080822091909155517f4256a058fa2b123d727576d3d31e3a272db98ee5fe264e229610ce43dc849999906102019084906106bf565b60405180910390a2919050565b60016020526000908152604090205481565b33600090815260016020526040902054348114156102535760405160e560020a62461bcd028152600401610173906105a8565b80156102da57600033600160a060020a031682604051610272906104f2565b60006040518083038185875af1925050503d80600081146102af576040519150601f19603f3d011682016040523d82523d6000602084013e6102b4565b606091505b50509050806102d85760405160e560020a62461bcd02815260040161017390610662565b505b3360008181526001602052604090819020349081905590517f7a22a5cccfbda9e66a8eb6b9e83f44fbab0514d3fed7512eb8f56588ff748c9f9161031d916106bf565b60405180910390a250565b600054600160a060020a031681565b60008054600160a060020a031633146103655760405160e560020a62461bcd02815260040161017390610514565b604051600160a060020a0384169083156108fc029084906000818181858888f193505050506103a95760405160e560020a62461bcd02815260040161017390610662565b82600160a060020a03167feb9df064f68e905565a2656b40e16dd2df0c9c21d72fda0d3a97de56f826f3d8836040516103e291906106bf565b60405180910390a250600192915050565b600054600160a060020a031633146104205760405160e560020a62461bcd02815260040161017390610514565b600160a060020a0381166104495760405160e560020a62461bcd02815260040161017390610605565b6000805473ffffffffffffffffffffffffffffffffffffffff1916600160a060020a0383811691821780845560405192939116917f5c486528ec3e3f0ea91181cff8116f02bfa350e03b8b6f12e00765adbb5af85c9190a350565b6000602082840312156104b5578081fd5b81356104c0816106c8565b9392505050565b600080604083850312156104d9578081fd5b82356104e4816106c8565b946020939093013593505050565b90565b600160a060020a0391909116815260200190565b901515815260200190565b60208082526024908201527f546869732066756e6374696f6e206973207265737472696374656420746f206f60408201527f776e657200000000000000000000000000000000000000000000000000000000606082015260800190565b6020808252600e908201527f456e74727920697320656d707479000000000000000000000000000000000000604082015260600190565b60208082526025908201527f456e74727920616c726561647920636f6e7461696e732074686973206d73672e60408201527f76616c7565000000000000000000000000000000000000000000000000000000606082015260800190565b60208082526022908201527f496e76616c696420616464726573733a2073686f756c64206e6f74206265203060408201527f7830000000000000000000000000000000000000000000000000000000000000606082015260800190565b6020808252602d908201527f4554484f207472616e73666572206661696c7572652e20436f6e74616374206360408201527f6f6e7472616374206f776e657200000000000000000000000000000000000000606082015260800190565b90815260200190565b600160a060020a03811681146106dd57600080fd5b5056fea26469706673582212207009f30acc1b25b43be9ac256f7224f528c96b56122023c8d7cc37e62f51d87364736f6c63430008010033",
  "immutableReferences": {},
  "source": "// SPDX-License-Identifier: MIT\npragma solidity ^0.8.0;\n\ncontract BridgeAssistO {\n    address public owner;\n    mapping(address => uint256) public entryOf;\n\n    modifier restricted {\n        require(msg.sender == owner, \"This function is restricted to owner\");\n        _;\n    }\n\n    event WriteEntry(address indexed sender, uint256 amount);\n    event Collect(address indexed sender, uint256 amount);\n    event Dispense(address indexed sender, uint256 amount);\n    event TransferOwnership(address indexed previousOwner, address indexed newOwner);\n\n    function writeEntry() public payable {\n        uint256 _e = entryOf[msg.sender];\n        require(msg.value != _e, \"Entry already contains this msg.value\");\n        if (_e > 0) {\n            (bool _s, ) = msg.sender.call{value: _e}(\"\");\n            require(_s, \"ETHO transfer failure. Contact contract owner\");\n        }\n        entryOf[msg.sender] = msg.value;\n        emit WriteEntry(msg.sender, msg.value);\n    }\n\n    function collect(address _sender) public restricted returns (uint256 amount) {\n        amount = entryOf[_sender];\n        require(amount != 0, \"Entry is empty\");\n        entryOf[_sender] = 0;\n        emit Collect(_sender, amount);\n        return amount;\n    }\n\n    function dispense(address payable _sender, uint256 _amount) public restricted returns (bool success) {\n        require(_sender.send(_amount), \"ETHO transfer failure. Contact contract owner\");\n        emit Dispense(_sender, _amount);\n        return true;\n    }\n\n    function transferOwnership(address _newOwner) public restricted {\n        require(_newOwner != address(0), \"Invalid address: should not be 0x0\");\n        owner = _newOwner;\n        emit TransferOwnership(owner, _newOwner);\n    }\n\n    constructor() {\n        owner = msg.sender;\n    }\n}\n",
  "sourcePath": "C:/projects/ethobridge/contracts/BridgeAssistO.sol",
  "compiler": {
    "name": "solc",
    "version": "0.8.1+commit.df193b15.Emscripten.clang"
  },
  "schemaVersion": "3.3.3",
  "updatedAt": "2021-01-30T16:24:45.644Z",
  "devdoc": {
    "kind": "dev",
    "methods": {},
    "version": 1
  },
  "userdoc": {
    "kind": "user",
    "methods": {},
    "version": 1
  }
}