{
  "contractName": "Token",
  "abi": [
    {
      "inputs": [],
      "stateMutability": "nonpayable",
      "type": "constructor"
    },
    {
      "anonymous": false,
      "inputs": [
        {
          "indexed": true,
          "internalType": "address",
          "name": "owner",
          "type": "address"
        },
        {
          "indexed": true,
          "internalType": "address",
          "name": "spender",
          "type": "address"
        },
        {
          "indexed": false,
          "internalType": "uint256",
          "name": "value",
          "type": "uint256"
        }
      ],
      "name": "Approval",
      "type": "event"
    },
    {
      "anonymous": false,
      "inputs": [
        {
          "indexed": true,
          "internalType": "address",
          "name": "issuer",
          "type": "address"
        },
        {
          "indexed": false,
          "internalType": "bool",
          "name": "value",
          "type": "bool"
        }
      ],
      "name": "IssuerRights",
      "type": "event"
    },
    {
      "anonymous": false,
      "inputs": [
        {
          "indexed": true,
          "internalType": "address",
          "name": "from",
          "type": "address"
        },
        {
          "indexed": true,
          "internalType": "address",
          "name": "to",
          "type": "address"
        },
        {
          "indexed": false,
          "internalType": "uint256",
          "name": "value",
          "type": "uint256"
        }
      ],
      "name": "Transfer",
      "type": "event"
    },
    {
      "anonymous": false,
      "inputs": [
        {
          "indexed": true,
          "internalType": "address",
          "name": "previousOwner",
          "type": "address"
        },
        {
          "indexed": true,
          "internalType": "address",
          "name": "newOwner",
          "type": "address"
        }
      ],
      "name": "TransferOwnership",
      "type": "event"
    },
    {
      "inputs": [
        {
          "internalType": "address",
          "name": "",
          "type": "address"
        },
        {
          "internalType": "address",
          "name": "",
          "type": "address"
        }
      ],
      "name": "allowance",
      "outputs": [
        {
          "internalType": "uint256",
          "name": "",
          "type": "uint256"
        }
      ],
      "stateMutability": "view",
      "type": "function"
    },
    {
      "inputs": [
        {
          "internalType": "address",
          "name": "",
          "type": "address"
        }
      ],
      "name": "balanceOf",
      "outputs": [
        {
          "internalType": "uint256",
          "name": "",
          "type": "uint256"
        }
      ],
      "stateMutability": "view",
      "type": "function"
    },
    {
      "inputs": [],
      "name": "decimals",
      "outputs": [
        {
          "internalType": "uint8",
          "name": "",
          "type": "uint8"
        }
      ],
      "stateMutability": "view",
      "type": "function"
    },
    {
      "inputs": [],
      "name": "name",
      "outputs": [
        {
          "internalType": "string",
          "name": "",
          "type": "string"
        }
      ],
      "stateMutability": "view",
      "type": "function"
    },
    {
      "inputs": [],
      "name": "symbol",
      "outputs": [
        {
          "internalType": "string",
          "name": "",
          "type": "string"
        }
      ],
      "stateMutability": "view",
      "type": "function"
    },
    {
      "inputs": [],
      "name": "totalSupply",
      "outputs": [
        {
          "internalType": "uint256",
          "name": "",
          "type": "uint256"
        }
      ],
      "stateMutability": "view",
      "type": "function"
    },
    {
      "inputs": [
        {
          "internalType": "address",
          "name": "_to",
          "type": "address"
        },
        {
          "internalType": "uint256",
          "name": "_amount",
          "type": "uint256"
        }
      ],
      "name": "mint",
      "outputs": [
        {
          "internalType": "bool",
          "name": "success",
          "type": "bool"
        }
      ],
      "stateMutability": "nonpayable",
      "type": "function"
    },
    {
      "inputs": [
        {
          "internalType": "uint256",
          "name": "_amount",
          "type": "uint256"
        }
      ],
      "name": "burn",
      "outputs": [
        {
          "internalType": "bool",
          "name": "success",
          "type": "bool"
        }
      ],
      "stateMutability": "nonpayable",
      "type": "function"
    },
    {
      "inputs": [
        {
          "internalType": "address",
          "name": "_from",
          "type": "address"
        },
        {
          "internalType": "uint256",
          "name": "_amount",
          "type": "uint256"
        }
      ],
      "name": "burnFrom",
      "outputs": [
        {
          "internalType": "bool",
          "name": "success",
          "type": "bool"
        }
      ],
      "stateMutability": "nonpayable",
      "type": "function"
    },
    {
      "inputs": [
        {
          "internalType": "address",
          "name": "_spender",
          "type": "address"
        },
        {
          "internalType": "uint256",
          "name": "_amount",
          "type": "uint256"
        }
      ],
      "name": "approve",
      "outputs": [
        {
          "internalType": "bool",
          "name": "success",
          "type": "bool"
        }
      ],
      "stateMutability": "nonpayable",
      "type": "function"
    },
    {
      "inputs": [
        {
          "internalType": "address",
          "name": "_to",
          "type": "address"
        },
        {
          "internalType": "uint256",
          "name": "_amount",
          "type": "uint256"
        }
      ],
      "name": "transfer",
      "outputs": [
        {
          "internalType": "bool",
          "name": "success",
          "type": "bool"
        }
      ],
      "stateMutability": "nonpayable",
      "type": "function"
    },
    {
      "inputs": [
        {
          "internalType": "address",
          "name": "_from",
          "type": "address"
        },
        {
          "internalType": "address",
          "name": "_to",
          "type": "address"
        },
        {
          "internalType": "uint256",
          "name": "_amount",
          "type": "uint256"
        }
      ],
      "name": "transferFrom",
      "outputs": [
        {
          "internalType": "bool",
          "name": "success",
          "type": "bool"
        }
      ],
      "stateMutability": "nonpayable",
      "type": "function"
    },
    {
      "inputs": [
        {
          "internalType": "address",
          "name": "_newOwner",
          "type": "address"
        }
      ],
      "name": "transferOwnership",
      "outputs": [],
      "stateMutability": "nonpayable",
      "type": "function"
    },
    {
      "inputs": [
        {
          "internalType": "address",
          "name": "_issuer",
          "type": "address"
        },
        {
          "internalType": "bool",
          "name": "_value",
          "type": "bool"
        }
      ],
      "name": "setIssuerRights",
      "outputs": [],
      "stateMutability": "nonpayable",
      "type": "function"
    }
  ],
  "bytecode": "0x60c0604052600c60808190527f57726170706564204554484f000000000000000000000000000000000000000060a0908152620000409160009190620001b8565b506040805180820190915260058082527f774554484f00000000000000000000000000000000000000000000000000000060209092019182526200008791600191620001b8565b506002805460ff191660121790556000600355348015620000a757600080fd5b5060048054600160a060020a03191633908117909155620000d390600164010000000062000106810204565b60405133906000907f5c486528ec3e3f0ea91181cff8116f02bfa350e03b8b6f12e00765adbb5af85c908290a36200031c565b600454600160a060020a0316331462000156576040517f08c379a00000000000000000000000000000000000000000000000000000000081526004016200014d9062000269565b60405180910390fd5b600160a060020a03821660008181526007602052604090819020805460ff1916841515179055517f4d8b9faf0fbe6a82229a9d56d9c20817dda2fe0bbdd64ad9f97d551f38022ba690620001ac9084906200025e565b60405180910390a25050565b828054620001c690620002c6565b90600052602060002090601f016020900481019282620001ea576000855562000235565b82601f106200020557805160ff191683800117855562000235565b8280016001018555821562000235579182015b828111156200023557825182559160200191906001019062000218565b506200024392915062000247565b5090565b5b8082111562000243576000815560010162000248565b901515815260200190565b60208082526024908201527f546869732066756e6374696f6e206973207265737472696374656420746f206f60408201527f776e657200000000000000000000000000000000000000000000000000000000606082015260800190565b600281046001821680620002db57607f821691505b6020821081141562000316577f4e487b7100000000000000000000000000000000000000000000000000000000600052602260045260246000fd5b50919050565b610bc5806200032c6000396000f3fe608060405234801561001057600080fd5b5060043610610107576000357c01000000000000000000000000000000000000000000000000000000009004806342966c68116100a957806395d89b411161008357806395d89b41146101e8578063a9059cbb146101f0578063dd62ed3e14610203578063f2fde38b1461021657610107565b806342966c68146101af57806370a08231146101c257806379cc6790146101d557610107565b80631e2487d5116100e55780631e2487d51461015f57806323b872dd14610174578063313ce5671461018757806340c10f191461019c57610107565b806306fdde031461010c578063095ea7b31461012a57806318160ddd1461014a575b600080fd5b610114610229565b6040516101219190610962565b60405180910390f35b61013d610138366004610916565b6102b7565b6040516101219190610957565b610152610321565b6040516101219190610aa6565b61017261016d3660046108dc565b610327565b005b61013d6101823660046108a1565b6103bd565b61018f610496565b6040516101219190610aaf565b61013d6101aa366004610916565b61049f565b61013d6101bd36600461093f565b610541565b6101526101d036600461084e565b6105e2565b61013d6101e3366004610916565b6105f4565b6101146106d0565b61013d6101fe366004610916565b6106dd565b61015261021136600461086f565b61075b565b61017261022436600461084e565b610778565b6000805461023690610aec565b80601f016020809104026020016040519081016040528092919081815260200182805461026290610aec565b80156102af5780601f10610284576101008083540402835291602001916102af565b820191906000526020600020905b81548152906001019060200180831161029257829003601f168201915b505050505081565b336000818152600660209081526040808320600160a060020a038716808552925280832085905551919290917f8c5be1e5ebec7d5bd14f71427d1e84f3dd0314c0f7b2291e5b200ac8c7c3b92590610310908690610aa6565b60405180910390a350600192915050565b60035481565b600454600160a060020a0316331461035d5760405160e560020a62461bcd028152600401610354906109b5565b60405180910390fd5b600160a060020a03821660008181526007602052604090819020805460ff1916841515179055517f4d8b9faf0fbe6a82229a9d56d9c20817dda2fe0bbdd64ad9f97d551f38022ba6906103b1908490610957565b60405180910390a25050565b600160a060020a03831660009081526006602090815260408083203384529091528120805483919083906103f2908490610ad5565b9091555050600160a060020a0384166000908152600560205260408120805484929061041f908490610ad5565b9091555050600160a060020a0383166000908152600560205260408120805484929061044c908490610abd565b9250508190555082600160a060020a031684600160a060020a0316600080516020610b70833981519152846040516104849190610aa6565b60405180910390a35060019392505050565b60025460ff1681565b3360009081526007602052604081205460ff166104d15760405160e560020a62461bcd02815260040161035490610a6f565b81600360008282546104e39190610abd565b9091555050600160a060020a03831660009081526005602052604081208054849290610510908490610abd565b9091555050604051600160a060020a03841690600090600080516020610b7083398151915290610310908690610aa6565b3360009081526007602052604081205460ff166105735760405160e560020a62461bcd02815260040161035490610a6f565b81600360008282546105859190610ad5565b909155505033600090815260056020526040812080548492906105a9908490610ad5565b90915550506040516000903390600080516020610b70833981519152906105d1908690610aa6565b60405180910390a35060015b919050565b60056020526000908152604090205481565b3360009081526007602052604081205460ff166106265760405160e560020a62461bcd02815260040161035490610a6f565b600160a060020a038316600090815260066020908152604080832033845290915281208054849290610659908490610ad5565b9091555050600160a060020a03831660009081526005602052604081208054849290610686908490610ad5565b92505081905550816003600082825461069f9190610ad5565b9091555050604051600090600160a060020a03851690600080516020610b7083398151915290610310908690610aa6565b6001805461023690610aec565b336000908152600560205260408120805483919083906106fe908490610ad5565b9091555050600160a060020a0383166000908152600560205260408120805484929061072b908490610abd565b9091555050604051600160a060020a038416903390600080516020610b7083398151915290610310908690610aa6565b600660209081526000928352604080842090915290825290205481565b600454600160a060020a031633146107a55760405160e560020a62461bcd028152600401610354906109b5565b600160a060020a0381166107ce5760405160e560020a62461bcd02815260040161035490610a12565b600454604051600160a060020a038084169216907f5c486528ec3e3f0ea91181cff8116f02bfa350e03b8b6f12e00765adbb5af85c90600090a36004805473ffffffffffffffffffffffffffffffffffffffff1916600160a060020a0392909216919091179055565b8035600160a060020a03811681146105dd57600080fd5b60006020828403121561085f578081fd5b61086882610837565b9392505050565b60008060408385031215610881578081fd5b61088a83610837565b915061089860208401610837565b90509250929050565b6000806000606084860312156108b5578081fd5b6108be84610837565b92506108cc60208501610837565b9150604084013590509250925092565b600080604083850312156108ee578182fd5b6108f783610837565b91506020830135801515811461090b578182fd5b809150509250929050565b60008060408385031215610928578182fd5b61093183610837565b946020939093013593505050565b600060208284031215610950578081fd5b5035919050565b901515815260200190565b6000602080835283518082850152825b8181101561098e57858101830151858201604001528201610972565b8181111561099f5783604083870101525b50601f01601f1916929092016040019392505050565b60208082526024908201527f546869732066756e6374696f6e206973207265737472696374656420746f206f60408201527f776e657200000000000000000000000000000000000000000000000000000000606082015260800190565b60208082526022908201527f496e76616c696420616464726573733a2073686f756c64206e6f74206265203060408201527f7830000000000000000000000000000000000000000000000000000000000000606082015260800190565b6020808252601d908201527f596f7520646f206e6f7420686176652069737375657220726967687473000000604082015260600190565b90815260200190565b60ff91909116815260200190565b60008219821115610ad057610ad0610b40565b500190565b600082821015610ae757610ae7610b40565b500390565b600281046001821680610b0057607f821691505b60208210811415610b3a577f4e487b7100000000000000000000000000000000000000000000000000000000600052602260045260246000fd5b50919050565b7f4e487b7100000000000000000000000000000000000000000000000000000000600052601160045260246000fdfeddf252ad1be2c89b69c2b068fc378daa952ba7f163c4a11628f55a4df523b3efa26469706673582212203e1642e225951ca97a758ef145411ae15f32304be8f3dd42ceb2d27c0f3908b864736f6c63430008000033",
  "immutableReferences": {},
  "source": "// SPDX-License-Identifier: MIT\npragma solidity ^0.8.0;\n\ncontract Token {\n    string public name = \"Wrapped ETHO\";\n    string public symbol = \"wETHO\";\n    uint8 public decimals = 18;\n    uint256 public totalSupply = 0;\n\n    address owner;\n    modifier restricted {\n        require(msg.sender == owner, \"This function is restricted to owner\");\n        _;\n    }\n    modifier issuerOnly {\n        require(isIssuer[msg.sender], \"You do not have issuer rights\");\n        _;\n    }\n\n    mapping(address => uint256) public balanceOf;\n    mapping(address => mapping(address => uint256)) public allowance;\n    mapping(address => bool) isIssuer;\n\n    event Transfer(address indexed from, address indexed to, uint256 value);\n    event Approval(\n        address indexed owner,\n        address indexed spender,\n        uint256 value\n    );\n    event IssuerRights(address indexed issuer, bool value);\n    event TransferOwnership(\n        address indexed previousOwner,\n        address indexed newOwner\n    );\n\n    function mint(address _to, uint256 _amount)\n        public\n        issuerOnly\n        returns (bool success)\n    {\n        totalSupply += _amount;\n        balanceOf[_to] += _amount;\n        emit Transfer(address(0), _to, _amount);\n        return true;\n    }\n\n    function burn(uint256 _amount) public issuerOnly returns (bool success) {\n        totalSupply -= _amount;\n        balanceOf[msg.sender] -= _amount;\n        emit Transfer(msg.sender, address(0), _amount);\n        return true;\n    }\n\n    function burnFrom(address _from, uint256 _amount)\n        public\n        issuerOnly\n        returns (bool success)\n    {\n        allowance[_from][msg.sender] -= _amount;\n        balanceOf[_from] -= _amount;\n        totalSupply -= _amount;\n        emit Transfer(_from, address(0), _amount);\n        return true;\n    }\n\n    function approve(address _spender, uint256 _amount)\n        public\n        returns (bool success)\n    {\n        allowance[msg.sender][_spender] = _amount;\n        emit Approval(msg.sender, _spender, _amount);\n        return true;\n    }\n\n    function transfer(address _to, uint256 _amount)\n        public\n        returns (bool success)\n    {\n        balanceOf[msg.sender] -= _amount;\n        balanceOf[_to] += _amount;\n        emit Transfer(msg.sender, _to, _amount);\n        return true;\n    }\n\n    function transferFrom(\n        address _from,\n        address _to,\n        uint256 _amount\n    ) public returns (bool success) {\n        allowance[_from][msg.sender] -= _amount;\n        balanceOf[_from] -= _amount;\n        balanceOf[_to] += _amount;\n        emit Transfer(_from, _to, _amount);\n        return true;\n    }\n\n    function transferOwnership(address _newOwner) public restricted {\n        require(_newOwner != address(0), \"Invalid address: should not be 0x0\");\n        emit TransferOwnership(owner, _newOwner);\n        owner = _newOwner;\n    }\n\n    function setIssuerRights(address _issuer, bool _value) public restricted {\n        isIssuer[_issuer] = _value;\n        emit IssuerRights(_issuer, _value);\n    }\n\n    constructor() {\n        owner = msg.sender;\n        setIssuerRights(msg.sender, true);\n        emit TransferOwnership(address(0), msg.sender);\n    }\n}\n",
  "sourcePath": "C:/projects/ethobridge/contracts/Token.sol",
  "compiler": {
    "name": "solc",
    "version": "0.8.0+commit.c7dfd78e.Emscripten.clang"
  },
  "schemaVersion": "3.3.3",
  "updatedAt": "2021-01-30T16:09:50.300Z",
  "networkType": "ethereum",
  "devdoc": {
    "kind": "dev",
    "methods": {},
    "version": 1
  },
  "userdoc": {
    "kind": "user",
    "methods": {},
    "version": 1
  }
}